:020000040000FA
:08000000803102288731F82F3E
:100D02000834863199268631230011140800863171
:100D120099268631230011150800283023009000FF
:100D220091018F0109308D002000931513160800E0
:100D320023000F199D2E9E2E992E11081F39031D77
:100D4200A32EA42E992E0800F00086319926863112
:100D5200700823008C002E000F18B02EB12EAC2E7E
:100D62000F14230011080800F10086318226863113
:100D72007B088631A526863171087D048631A52639
:100D820086318631882686310800F3007C08F2001D
:100D92007208F304730804388631B5268631730865
:100DA200FB398631B52686314230890BD62E003288
:100DB2000800F500FC017508F0398631C626863137
:100DC2007508F4000330F435FF3E031DE42E74353C
:100DD200F0398631C62686310800F500FC01FC0A8E
:100DE2007508F0398631C62686317508F40003305D
:100DF200F435FF3E031DF92E7435F0398631C626CF
:100E020086310800F901FA01142F76087907840067
:100E120077087A3D850000088631EE268731013059
:100E2200F9070030FA3D76087907840077087A3DA1
:100E320085001200031D1E2F1F2F062F0800200001
:100E4200911086318E2687314E3087317627873151
:100E520020008C14F601F60A0130873148278731C9
:100E62000030F6008830F700873103278731F6011A
:100E7200F60A02308731482787310E30F600883073
:100E8200F700873103278731292F80310228F900A3
:100E9200622F7608BF3E8631DA268731752F7608B3
:100EA200933E8631DA268731752F7608D33E863116
:100EB200DA268731752F76087F3E8631DA2687312A
:100EC200752F7908F700F8017808003A03196A2F9C
:100ED2005C2F7708023A03194A2F013A0319502F5F
:100EE200073A0319562F5C2F0800F8007808F6001D
:100EF2007608FB0000308631B52687319C30F6003B
:100F0200D730890B822FF60B822F000003308631F7
:100F1200DA2687311A30F600F830890B8E2FF60B5D
:100F22008E2F003203308631DA2687311A30F600EE
:100F3200F830890B9A2FF60B9A2F00320330863144
:100F4200DA2687311A30F600F830890BA62FF60B15
:100F5200A62F003202308631DA2687311A30F600A7
:100F6200F830890BB22FF60BB22F003228308631BF
:100F7200DA2687310230F7000430F600BA30890BE6
:100F8200C02FF60BC02FF70BC02F00320C3086316A
:100F9200DA2687310230F7000430F600BA30890BC6
:100FA200D02FF60BD02FF70BD02F00320130863125
:100FB200DA2687310230F7000430F600BA30890BA6
:100FC200E02FF60BE02FF70BE02F003206308631D0
:100FD200DA2687310230F7000430F600BA30890B86
:100FE200F02FF60BF02FF70BF02F003208008631AE
:100FF20081268731FD00FC0120008731202F20341B
:101002004B34683461346C346534643420344D3488
:1010120061346734643479340034203444346534C0
:0E1022006534703442346C34753465340034F7
:00000001FF
