:020000040000FA
:08000000803102288731F82F3E
:100D0400083486319A26863123001114080086316E
:100D14009A268631230011150800283023009000FC
:100D240091018F0127308D002000931513160800C0
:100D340023000F199E2E9F2E9A2E11081F39031D72
:100D4400A42EA52E9A2E0800F00086319A2686310C
:100D54007008230096002E000F18B12EB22EAD2E6F
:100D64000F15230011080800F1008631832686310F
:100D74007B088631A626863171087D048631A62635
:100D840086318631892686310800F3007C08F2001A
:100D94007208F304730804388631B6268631730862
:100DA400FB398631B62686314230890BD72E003284
:100DB4000800F500FC017508F0398631C726863134
:100DC4007508F4000330F435FF3E031DE52E743539
:100DD400F0398631C72686310800F500FC01FC0A8B
:100DE4007508F0398631C72686317508F40003305A
:100DF400F435FF3E031DFA2E7435F0398631C726CB
:100E040086310800F901FA01152F76087907840064
:100E140077087A3D850000088631EF268731013056
:100E2400F9070030FA3D76087907840077087A3D9F
:100E340085001200031D1F2F202F072F08002000FC
:100E440091108C1086318F2687314E30873176276A
:100E54008731F601F60A013087314827873100309F
:100E6400F6008830F700873104278731F601F60A47
:100E740002308731482787310E30F6008830F7007A
:100E8400873104278731452F80310228F900622FEA
:100E94007608BF3E8631DB268731752F7608933E70
:100EA4008631DB268731752F7608D33E8631DB26E3
:100EB4008731752F76087F3E8631DB268731752F83
:100EC4007908F700F8017808003A03196A2F5C2FB3
:100ED4007708023A03194A2F013A0319502F073AA7
:100EE4000319562F5C2F0800F8007808F6007608DE
:100EF400FB0000308631B62687319C30F600D730AF
:100F0400890B822FF60B822F000003308631DB26FB
:100F140087311A30F600F830890B8E2FF60B8E2F9E
:100F2400003203308631DB2687311A30F600F83080
:100F3400890B9A2FF60B9A2F003203308631DB2669
:100F440087311A30F600F830890BA62FF60BA62F3E
:100F5400003202308631DB2687311A30F600F83051
:100F6400890BB22FF60BB22F003228308631DB26E4
:100F740087310230F7000430F600BA30890BC02FF5
:100F8400F60BC02FF70BC02F00320C308631DB2656
:100F940087310230F7000430F600BA30890BD02FC5
:100FA400F60BD02FF70BD02F003201308631DB2621
:100FB40087310230F7000430F600BA30890BE02F95
:100FC400F60BE02FF70BE02F003206308631DB26DC
:100FD40087310230F7000430F600BA30890BF02F65
:100FE400F60BF02FF70BF02F003208008631822623
:100FF4008731FD00FC0120008731212F20344B3440
:10100400683461346C346534643420344D34613470
:1010140067346434793400342034443465346534BA
:0C102400703442346C3475346534003490
:00000001FF
